{
  "_format": "hh-sol-artifact-1",
  "contractName": "smartBank",
  "sourceName": "contracts/SmartBank.sol",
  "abi": [
    {
      "inputs": [],
      "stateMutability": "nonpayable",
      "type": "constructor"
    },
    {
      "anonymous": false,
      "inputs": [
        {
          "indexed": true,
          "internalType": "address",
          "name": "from",
          "type": "address"
        },
        {
          "indexed": false,
          "internalType": "uint256",
          "name": "amount",
          "type": "uint256"
        }
      ],
      "name": "Deposited",
      "type": "event"
    },
    {
      "anonymous": false,
      "inputs": [
        {
          "indexed": true,
          "internalType": "address",
          "name": "from",
          "type": "address"
        },
        {
          "indexed": false,
          "internalType": "address",
          "name": "to",
          "type": "address"
        },
        {
          "indexed": false,
          "internalType": "uint256",
          "name": "amount",
          "type": "uint256"
        }
      ],
      "name": "Transfered",
      "type": "event"
    },
    {
      "anonymous": false,
      "inputs": [
        {
          "indexed": true,
          "internalType": "address",
          "name": "from",
          "type": "address"
        },
        {
          "indexed": false,
          "internalType": "uint256",
          "name": "amount",
          "type": "uint256"
        }
      ],
      "name": "Withdrawed",
      "type": "event"
    },
    {
      "stateMutability": "payable",
      "type": "fallback"
    },
    {
      "inputs": [],
      "name": "deposit",
      "outputs": [],
      "stateMutability": "payable",
      "type": "function"
    },
    {
      "inputs": [],
      "name": "getBalance",
      "outputs": [
        {
          "internalType": "uint256",
          "name": "",
          "type": "uint256"
        }
      ],
      "stateMutability": "view",
      "type": "function"
    },
    {
      "inputs": [],
      "name": "getContractBalance",
      "outputs": [
        {
          "internalType": "uint256",
          "name": "",
          "type": "uint256"
        }
      ],
      "stateMutability": "view",
      "type": "function"
    },
    {
      "inputs": [],
      "name": "owner",
      "outputs": [
        {
          "internalType": "address",
          "name": "",
          "type": "address"
        }
      ],
      "stateMutability": "view",
      "type": "function"
    },
    {
      "inputs": [
        {
          "internalType": "address payable",
          "name": "to",
          "type": "address"
        },
        {
          "internalType": "uint256",
          "name": "amount",
          "type": "uint256"
        }
      ],
      "name": "transfer",
      "outputs": [],
      "stateMutability": "nonpayable",
      "type": "function"
    },
    {
      "inputs": [
        {
          "internalType": "uint256",
          "name": "amount",
          "type": "uint256"
        }
      ],
      "name": "withdraw",
      "outputs": [],
      "stateMutability": "nonpayable",
      "type": "function"
    },
    {
      "stateMutability": "payable",
      "type": "receive"
    }
  ],
  "bytecode": "0x6080604052348015600f57600080fd5b5033600160006101000a81548173ffffffffffffffffffffffffffffffffffffffff021916908373ffffffffffffffffffffffffffffffffffffffff160217905550610b76806100606000396000f3fe6080604052600436106100595760003560e01c806312065fe01461013e5780632e1a7d4d146101695780636f9fb98a146101925780638da5cb5b146101bd578063a9059cbb146101e8578063d0e30db01461021157610103565b3661010357346000803373ffffffffffffffffffffffffffffffffffffffff1673ffffffffffffffffffffffffffffffffffffffff16815260200190815260200160002060008282546100ac919061072d565b925050819055503373ffffffffffffffffffffffffffffffffffffffff167f2da466a7b24304f47e87fa2e1e5a81b9831ce54fec19055ce277ca2f39ba42c4346040516100f99190610770565b60405180910390a2005b6040517f08c379a0000000000000000000000000000000000000000000000000000000008152600401610135906107e8565b60405180910390fd5b34801561014a57600080fd5b5061015361021b565b6040516101609190610770565b60405180910390f35b34801561017557600080fd5b50610190600480360381019061018b9190610839565b610261565b005b34801561019e57600080fd5b506101a76103cf565b6040516101b49190610770565b60405180910390f35b3480156101c957600080fd5b506101d2610467565b6040516101df91906108a7565b60405180910390f35b3480156101f457600080fd5b5061020f600480360381019061020a9190610900565b61048d565b005b61021961060c565b005b60008060003373ffffffffffffffffffffffffffffffffffffffff1673ffffffffffffffffffffffffffffffffffffffff16815260200190815260200160002054905090565b806000803373ffffffffffffffffffffffffffffffffffffffff1673ffffffffffffffffffffffffffffffffffffffff1681526020019081526020016000205410156102e2576040517f08c379a00000000000000000000000000000000000000000000000000000000081526004016102d99061098c565b60405180910390fd5b806000803373ffffffffffffffffffffffffffffffffffffffff1673ffffffffffffffffffffffffffffffffffffffff168152602001908152602001600020600082825461033091906109ac565b925050819055503373ffffffffffffffffffffffffffffffffffffffff166108fc829081150290604051600060405180830381858888f1935050505015801561037d573d6000803e3d6000fd5b503373ffffffffffffffffffffffffffffffffffffffff167f6cca423c6ffc06e62a0acc433965e074b11c28479b0449250ce3ff65ac9e39fe826040516103c49190610770565b60405180910390a250565b6000600160009054906101000a900473ffffffffffffffffffffffffffffffffffffffff1673ffffffffffffffffffffffffffffffffffffffff163373ffffffffffffffffffffffffffffffffffffffff1614610461576040517f08c379a000000000000000000000000000000000000000000000000000000000815260040161045890610a2c565b60405180910390fd5b47905090565b600160009054906101000a900473ffffffffffffffffffffffffffffffffffffffff1681565b806000803373ffffffffffffffffffffffffffffffffffffffff1673ffffffffffffffffffffffffffffffffffffffff16815260200190815260200160002054101561050e576040517f08c379a00000000000000000000000000000000000000000000000000000000081526004016105059061098c565b60405180910390fd5b806000803373ffffffffffffffffffffffffffffffffffffffff1673ffffffffffffffffffffffffffffffffffffffff168152602001908152602001600020600082825461055c91906109ac565b92505081905550806000808473ffffffffffffffffffffffffffffffffffffffff1673ffffffffffffffffffffffffffffffffffffffff16815260200190815260200160002060008282546105b1919061072d565b925050819055503373ffffffffffffffffffffffffffffffffffffffff167f8930ac7bcb101f94c05b13845098ae74383bfb9e348e73061b730040945cbb828383604051610600929190610aab565b60405180910390a25050565b6000341161064f576040517f08c379a000000000000000000000000000000000000000000000000000000000815260040161064690610b20565b60405180910390fd5b346000803373ffffffffffffffffffffffffffffffffffffffff1673ffffffffffffffffffffffffffffffffffffffff168152602001908152602001600020600082825461069d919061072d565b925050819055503373ffffffffffffffffffffffffffffffffffffffff167f2da466a7b24304f47e87fa2e1e5a81b9831ce54fec19055ce277ca2f39ba42c4346040516106ea9190610770565b60405180910390a2565b6000819050919050565b7f4e487b7100000000000000000000000000000000000000000000000000000000600052601160045260246000fd5b6000610738826106f4565b9150610743836106f4565b925082820190508082111561075b5761075a6106fe565b5b92915050565b61076a816106f4565b82525050565b60006020820190506107856000830184610761565b92915050565b600082825260208201905092915050565b7f46756e6374696f6e20646f6573206e6f74206578697374210000000000000000600082015250565b60006107d260188361078b565b91506107dd8261079c565b602082019050919050565b60006020820190508181036000830152610801816107c5565b9050919050565b600080fd5b610816816106f4565b811461082157600080fd5b50565b6000813590506108338161080d565b92915050565b60006020828403121561084f5761084e610808565b5b600061085d84828501610824565b91505092915050565b600073ffffffffffffffffffffffffffffffffffffffff82169050919050565b600061089182610866565b9050919050565b6108a181610886565b82525050565b60006020820190506108bc6000830184610898565b92915050565b60006108cd82610866565b9050919050565b6108dd816108c2565b81146108e857600080fd5b50565b6000813590506108fa816108d4565b92915050565b6000806040838503121561091757610916610808565b5b6000610925858286016108eb565b925050602061093685828601610824565b9150509250929050565b7f496e73756666696369656e742066756e64732100000000000000000000000000600082015250565b600061097660138361078b565b915061098182610940565b602082019050919050565b600060208201905081810360008301526109a581610969565b9050919050565b60006109b7826106f4565b91506109c2836106f4565b92508282039050818111156109da576109d96106fe565b5b92915050565b7f4e6f7420616c6c6f77656420666f72207468697320616374696f6e0000000000600082015250565b6000610a16601b8361078b565b9150610a21826109e0565b602082019050919050565b60006020820190508181036000830152610a4581610a09565b9050919050565b6000819050919050565b6000610a71610a6c610a6784610866565b610a4c565b610866565b9050919050565b6000610a8382610a56565b9050919050565b6000610a9582610a78565b9050919050565b610aa581610a8a565b82525050565b6000604082019050610ac06000830185610a9c565b610acd6020830184610761565b9392505050565b7f4e6f20616d6f756e742070726f76696465640000000000000000000000000000600082015250565b6000610b0a60128361078b565b9150610b1582610ad4565b602082019050919050565b60006020820190508181036000830152610b3981610afd565b905091905056fea2646970667358221220afd7cb56e272a2ee143c57fcc0c60555711813286fd200cccce03005324112da64736f6c634300081c0033",
  "linkReferences": {},
  "deployedLinkReferences": {}
}